{
    "_format": "hh-sol-artifact-1",
    "contractName": "Badge",
    "sourceName": "contracts/Badge.sol",
    "abi": [
        {
            "inputs": [
                {
                    "internalType": "string",
                    "name": "name",
                    "type": "string"
                },
                {
                    "internalType": "string",
                    "name": "symbol",
                    "type": "string"
                },
                {
                    "internalType": "string",
                    "name": "_baseURI",
                    "type": "string"
                }
            ],
            "stateMutability": "nonpayable",
            "type": "constructor"
        },
        {
            "inputs": [
                {
                    "internalType": "address",
                    "name": "sender",
                    "type": "address"
                },
                {
                    "internalType": "uint256",
                    "name": "tokenId",
                    "type": "uint256"
                },
                {
                    "internalType": "address",
                    "name": "owner",
                    "type": "address"
                }
            ],
            "name": "ERC721IncorrectOwner",
            "type": "error"
        },
        {
            "inputs": [
                {
                    "internalType": "address",
                    "name": "operator",
                    "type": "address"
                },
                {
                    "internalType": "uint256",
                    "name": "tokenId",
                    "type": "uint256"
                }
            ],
            "name": "ERC721InsufficientApproval",
            "type": "error"
        },
        {
            "inputs": [
                {
                    "internalType": "address",
                    "name": "approver",
                    "type": "address"
                }
            ],
            "name": "ERC721InvalidApprover",
            "type": "error"
        },
        {
            "inputs": [
                {
                    "internalType": "address",
                    "name": "operator",
                    "type": "address"
                }
            ],
            "name": "ERC721InvalidOperator",
            "type": "error"
        },
        {
            "inputs": [
                {
                    "internalType": "address",
                    "name": "owner",
                    "type": "address"
                }
            ],
            "name": "ERC721InvalidOwner",
            "type": "error"
        },
        {
            "inputs": [
                {
                    "internalType": "address",
                    "name": "receiver",
                    "type": "address"
                }
            ],
            "name": "ERC721InvalidReceiver",
            "type": "error"
        },
        {
            "inputs": [
                {
                    "internalType": "address",
                    "name": "sender",
                    "type": "address"
                }
            ],
            "name": "ERC721InvalidSender",
            "type": "error"
        },
        {
            "inputs": [
                {
                    "internalType": "uint256",
                    "name": "tokenId",
                    "type": "uint256"
                }
            ],
            "name": "ERC721NonexistentToken",
            "type": "error"
        },
        {
            "inputs": [
                {
                    "internalType": "address",
                    "name": "owner",
                    "type": "address"
                }
            ],
            "name": "OwnableInvalidOwner",
            "type": "error"
        },
        {
            "inputs": [
                {
                    "internalType": "address",
                    "name": "account",
                    "type": "address"
                }
            ],
            "name": "OwnableUnauthorizedAccount",
            "type": "error"
        },
        {
            "anonymous": false,
            "inputs": [
                {
                    "indexed": true,
                    "internalType": "address",
                    "name": "owner",
                    "type": "address"
                },
                {
                    "indexed": true,
                    "internalType": "address",
                    "name": "approved",
                    "type": "address"
                },
                {
                    "indexed": true,
                    "internalType": "uint256",
                    "name": "tokenId",
                    "type": "uint256"
                }
            ],
            "name": "Approval",
            "type": "event"
        },
        {
            "anonymous": false,
            "inputs": [
                {
                    "indexed": true,
                    "internalType": "address",
                    "name": "owner",
                    "type": "address"
                },
                {
                    "indexed": true,
                    "internalType": "address",
                    "name": "operator",
                    "type": "address"
                },
                {
                    "indexed": false,
                    "internalType": "bool",
                    "name": "approved",
                    "type": "bool"
                }
            ],
            "name": "ApprovalForAll",
            "type": "event"
        },
        {
            "anonymous": false,
            "inputs": [
                {
                    "indexed": true,
                    "internalType": "address",
                    "name": "previousOwner",
                    "type": "address"
                },
                {
                    "indexed": true,
                    "internalType": "address",
                    "name": "newOwner",
                    "type": "address"
                }
            ],
            "name": "OwnershipTransferred",
            "type": "event"
        },
        {
            "anonymous": false,
            "inputs": [
                {
                    "indexed": true,
                    "internalType": "address",
                    "name": "from",
                    "type": "address"
                },
                {
                    "indexed": true,
                    "internalType": "address",
                    "name": "to",
                    "type": "address"
                },
                {
                    "indexed": true,
                    "internalType": "uint256",
                    "name": "tokenId",
                    "type": "uint256"
                }
            ],
            "name": "Transfer",
            "type": "event"
        },
        {
            "inputs": [
                {
                    "internalType": "address",
                    "name": "to",
                    "type": "address"
                },
                {
                    "internalType": "uint256",
                    "name": "tokenId",
                    "type": "uint256"
                }
            ],
            "name": "approve",
            "outputs": [],
            "stateMutability": "pure",
            "type": "function"
        },
        {
            "inputs": [
                {
                    "internalType": "address",
                    "name": "owner",
                    "type": "address"
                }
            ],
            "name": "balanceOf",
            "outputs": [
                {
                    "internalType": "uint256",
                    "name": "",
                    "type": "uint256"
                }
            ],
            "stateMutability": "view",
            "type": "function"
        },
        {
            "inputs": [],
            "name": "baseURI",
            "outputs": [
                {
                    "internalType": "string",
                    "name": "",
                    "type": "string"
                }
            ],
            "stateMutability": "view",
            "type": "function"
        },
        {
            "inputs": [
                {
                    "internalType": "uint256",
                    "name": "tokenId",
                    "type": "uint256"
                }
            ],
            "name": "getApproved",
            "outputs": [
                {
                    "internalType": "address",
                    "name": "",
                    "type": "address"
                }
            ],
            "stateMutability": "view",
            "type": "function"
        },
        {
            "inputs": [
                {
                    "internalType": "address",
                    "name": "owner",
                    "type": "address"
                },
                {
                    "internalType": "address",
                    "name": "operator",
                    "type": "address"
                }
            ],
            "name": "isApprovedForAll",
            "outputs": [
                {
                    "internalType": "bool",
                    "name": "",
                    "type": "bool"
                }
            ],
            "stateMutability": "view",
            "type": "function"
        },
        {
            "inputs": [
                {
                    "internalType": "address",
                    "name": "receiver_cut",
                    "type": "address"
                }
            ],
            "name": "mintNFT",
            "outputs": [
                {
                    "internalType": "uint256",
                    "name": "",
                    "type": "uint256"
                }
            ],
            "stateMutability": "payable",
            "type": "function"
        },
        {
            "inputs": [],
            "name": "name",
            "outputs": [
                {
                    "internalType": "string",
                    "name": "",
                    "type": "string"
                }
            ],
            "stateMutability": "view",
            "type": "function"
        },
        {
            "inputs": [],
            "name": "owner",
            "outputs": [
                {
                    "internalType": "address",
                    "name": "",
                    "type": "address"
                }
            ],
            "stateMutability": "view",
            "type": "function"
        },
        {
            "inputs": [
                {
                    "internalType": "uint256",
                    "name": "tokenId",
                    "type": "uint256"
                }
            ],
            "name": "ownerOf",
            "outputs": [
                {
                    "internalType": "address",
                    "name": "",
                    "type": "address"
                }
            ],
            "stateMutability": "view",
            "type": "function"
        },
        {
            "inputs": [],
            "name": "renounceOwnership",
            "outputs": [],
            "stateMutability": "nonpayable",
            "type": "function"
        },
        {
            "inputs": [
                {
                    "internalType": "address",
                    "name": "from",
                    "type": "address"
                },
                {
                    "internalType": "address",
                    "name": "to",
                    "type": "address"
                },
                {
                    "internalType": "uint256",
                    "name": "tokenId",
                    "type": "uint256"
                }
            ],
            "name": "safeTransferFrom",
            "outputs": [],
            "stateMutability": "nonpayable",
            "type": "function"
        },
        {
            "inputs": [
                {
                    "internalType": "address",
                    "name": "from",
                    "type": "address"
                },
                {
                    "internalType": "address",
                    "name": "to",
                    "type": "address"
                },
                {
                    "internalType": "uint256",
                    "name": "tokenId",
                    "type": "uint256"
                },
                {
                    "internalType": "bytes",
                    "name": "data",
                    "type": "bytes"
                }
            ],
            "name": "safeTransferFrom",
            "outputs": [],
            "stateMutability": "pure",
            "type": "function"
        },
        {
            "inputs": [
                {
                    "internalType": "address",
                    "name": "operator",
                    "type": "address"
                },
                {
                    "internalType": "bool",
                    "name": "approved",
                    "type": "bool"
                }
            ],
            "name": "setApprovalForAll",
            "outputs": [],
            "stateMutability": "pure",
            "type": "function"
        },
        {
            "inputs": [
                {
                    "internalType": "string",
                    "name": "_baseURI",
                    "type": "string"
                }
            ],
            "name": "setBaseURI",
            "outputs": [],
            "stateMutability": "nonpayable",
            "type": "function"
        },
        {
            "inputs": [
                {
                    "internalType": "uint256",
                    "name": "_mintingPrice",
                    "type": "uint256"
                }
            ],
            "name": "setMintingPrice",
            "outputs": [],
            "stateMutability": "nonpayable",
            "type": "function"
        },
        {
            "inputs": [
                {
                    "internalType": "bytes4",
                    "name": "interfaceId",
                    "type": "bytes4"
                }
            ],
            "name": "supportsInterface",
            "outputs": [
                {
                    "internalType": "bool",
                    "name": "",
                    "type": "bool"
                }
            ],
            "stateMutability": "view",
            "type": "function"
        },
        {
            "inputs": [],
            "name": "symbol",
            "outputs": [
                {
                    "internalType": "string",
                    "name": "",
                    "type": "string"
                }
            ],
            "stateMutability": "view",
            "type": "function"
        },
        {
            "inputs": [
                {
                    "internalType": "uint256",
                    "name": "tokenId",
                    "type": "uint256"
                }
            ],
            "name": "tokenURI",
            "outputs": [
                {
                    "internalType": "string",
                    "name": "",
                    "type": "string"
                }
            ],
            "stateMutability": "view",
            "type": "function"
        },
        {
            "inputs": [
                {
                    "internalType": "address",
                    "name": "from",
                    "type": "address"
                },
                {
                    "internalType": "address",
                    "name": "to",
                    "type": "address"
                },
                {
                    "internalType": "uint256",
                    "name": "tokenId",
                    "type": "uint256"
                }
            ],
            "name": "transferFrom",
            "outputs": [],
            "stateMutability": "pure",
            "type": "function"
        },
        {
            "inputs": [
                {
                    "internalType": "address",
                    "name": "newOwner",
                    "type": "address"
                }
            ],
            "name": "transferOwnership",
            "outputs": [],
            "stateMutability": "nonpayable",
            "type": "function"
        }
    ],
    "bytecode": "0x60806040523480156200001157600080fd5b506040516200169f3803806200169f8339810160408190526200003491620001d9565b3383836000620000458382620002f9565b506001620000548282620002f9565b5050506001600160a01b0381166200008657604051631e4fbdf760e01b81526000600482015260240160405180910390fd5b6200009181620000c2565b506007620000a08282620002f9565b5050600060085550506103e8600a556801158e460913d00000600955620003c5565b600680546001600160a01b038381166001600160a01b0319831681179093556040519116919082907f8be0079c531659141344cd1fd0a4f28419497f9722a3daafe3b4186f6b6457e090600090a35050565b634e487b7160e01b600052604160045260246000fd5b600082601f8301126200013c57600080fd5b81516001600160401b038082111562000159576200015962000114565b604051601f8301601f19908116603f0116810190828211818310171562000184576200018462000114565b81604052838152602092508683858801011115620001a157600080fd5b600091505b83821015620001c55785820183015181830184015290820190620001a6565b600093810190920192909252949350505050565b600080600060608486031215620001ef57600080fd5b83516001600160401b03808211156200020757600080fd5b62000215878388016200012a565b945060208601519150808211156200022c57600080fd5b6200023a878388016200012a565b935060408601519150808211156200025157600080fd5b5062000260868287016200012a565b9150509250925092565b600181811c908216806200027f57607f821691505b602082108103620002a057634e487b7160e01b600052602260045260246000fd5b50919050565b601f821115620002f457600081815260208120601f850160051c81016020861015620002cf5750805b601f850160051c820191505b81811015620002f057828155600101620002db565b5050505b505050565b81516001600160401b0381111562000315576200031562000114565b6200032d816200032684546200026a565b84620002a6565b602080601f8311600181146200036557600084156200034c5750858301515b600019600386901b1c1916600185901b178555620002f0565b600085815260208120601f198616915b82811015620003965788860151825594840194600190910190840162000375565b5085821015620003b55787850151600019600388901b60f8161c191681555b5050505050600190811b01905550565b6112ca80620003d56000396000f3fe60806040526004361061011f5760003560e01c806370a08231116100a0578063a22cb46511610064578063a22cb46514610313578063b88d4fde1461032e578063c87b56dd14610349578063e985e9c514610369578063f2fde38b1461038957600080fd5b806370a082311461028b578063715018a6146102ab5780638417b47f146102c05780638da5cb5b146102e057806395d89b41146102fe57600080fd5b806342842e0e116100e757806342842e0e146101f557806354ba0f271461021557806355f804b3146102365780636352211e146102565780636c0360eb1461027657600080fd5b806301ffc9a71461012457806306fdde0314610159578063081812fc1461017b578063095ea7b3146101b357806323b872dd146101d5575b600080fd5b34801561013057600080fd5b5061014461013f366004610ddc565b6103a9565b60405190151581526020015b60405180910390f35b34801561016557600080fd5b5061016e6103fb565b6040516101509190610e0d565b34801561018757600080fd5b5061019b610196366004610e5b565b61048d565b6040516001600160a01b039091168152602001610150565b3480156101bf57600080fd5b506101d36101ce366004610e90565b6104b6565b005b3480156101e157600080fd5b506101d36101f0366004610eba565b610519565b34801561020157600080fd5b506101d3610210366004610eba565b610578565b610228610223366004610ef6565b610593565b604051908152602001610150565b34801561024257600080fd5b506101d3610251366004610f9d565b610842565b34801561026257600080fd5b5061019b610271366004610e5b565b610856565b34801561028257600080fd5b5061016e610861565b34801561029757600080fd5b506102286102a6366004610ef6565b6108ef565b3480156102b757600080fd5b506101d3610937565b3480156102cc57600080fd5b506101d36102db366004610e5b565b61094b565b3480156102ec57600080fd5b506006546001600160a01b031661019b565b34801561030a57600080fd5b5061016e610958565b34801561031f57600080fd5b506101d36101ce366004610fe6565b34801561033a57600080fd5b506101d36101f0366004611022565b34801561035557600080fd5b5061016e610364366004610e5b565b610967565b34801561037557600080fd5b5061014461038436600461109e565b61097b565b34801561039557600080fd5b506101d36103a4366004610ef6565b6109a9565b60006001600160e01b031982166380ac58cd60e01b14806103da57506001600160e01b03198216635b5e139f60e01b145b806103f557506301ffc9a760e01b6001600160e01b03198316145b92915050565b60606000805461040a906110d1565b80601f0160208091040260200160405190810160405280929190818152602001828054610436906110d1565b80156104835780601f1061045857610100808354040283529160200191610483565b820191906000526020600020905b81548152906001019060200180831161046657829003601f168201915b5050505050905090565b6000610498826109e7565b506000828152600460205260409020546001600160a01b03166103f5565b60405162461bcd60e51b815260206004820152602960248201527f536f756c426f756e64546f6b656e3a20417070726f76616c7320617265206e6f6044820152681d08185b1b1bddd95960ba1b60648201526084015b60405180910390fd5b5050565b60405162461bcd60e51b815260206004820152602960248201527f536f756c426f756e64546f6b656e3a205472616e736665727320617265206e6f6044820152681d08185b1b1bddd95960ba1b606482015260840161050c565b505050565b61057383838360405180602001604052806000815250610519565b600880546000918190836105a683611121565b91905055506105b53382610a20565b60095434146105fe5760405162461bcd60e51b81526020600482015260156024820152744e6f74206d61746368206d696e74696e672066656560581b604482015260640161050c565b60006106126006546001600160a01b031690565b9050806001600160a01b0316846001600160a01b0316036106d057600080826001600160a01b03163460405160006040518083038185875af1925050503d806000811461067b576040519150601f19603f3d011682016040523d82523d6000602084013e610680565b606091505b5091509150816106c95760405162461bcd60e51b81526020600482015260146024820152732330b4b632b2103a379039b2b7321022ba3432b960611b604482015260640161050c565b505061083b565b6000612710600a54346106e3919061113a565b6106ed9190611151565b9050600080866001600160a01b03168360405160006040518083038185875af1925050503d806000811461073d576040519150601f19603f3d011682016040523d82523d6000602084013e610742565b606091505b5091509150816107945760405162461bcd60e51b815260206004820152601d60248201527f4661696c656420746f2073656e64207265636569766572204574686572000000604482015260640161050c565b6000806001600160a01b0386166107ab8634611173565b604051600081818185875af1925050503d80600081146107e7576040519150601f19603f3d011682016040523d82523d6000602084013e6107ec565b606091505b5091509150816108355760405162461bcd60e51b81526020600482015260146024820152732330b4b632b2103a379039b2b7321022ba3432b960611b604482015260640161050c565b50505050505b5092915050565b61084a610a85565b600761051582826111d4565b60006103f5826109e7565b6007805461086e906110d1565b80601f016020809104026020016040519081016040528092919081815260200182805461089a906110d1565b80156108e75780601f106108bc576101008083540402835291602001916108e7565b820191906000526020600020905b8154815290600101906020018083116108ca57829003601f168201915b505050505081565b60006001600160a01b03821661091b576040516322718ad960e21b81526000600482015260240161050c565b506001600160a01b031660009081526003602052604090205490565b61093f610a85565b6109496000610ab2565b565b610953610a85565b600955565b60606001805461040a906110d1565b6060610972826109e7565b506103f5610b04565b6001600160a01b03918216600090815260056020908152604080832093909416825291909152205460ff1690565b6109b1610a85565b6001600160a01b0381166109db57604051631e4fbdf760e01b81526000600482015260240161050c565b6109e481610ab2565b50565b6000818152600260205260408120546001600160a01b0316806103f557604051637e27328960e01b81526004810184905260240161050c565b6001600160a01b038216610a4a57604051633250574960e11b81526000600482015260240161050c565b6000610a5883836000610b13565b90506001600160a01b03811615610573576040516339e3563760e11b81526000600482015260240161050c565b6006546001600160a01b031633146109495760405163118cdaa760e01b815233600482015260240161050c565b600680546001600160a01b038381166001600160a01b0319831681179093556040519116919082907f8be0079c531659141344cd1fd0a4f28419497f9722a3daafe3b4186f6b6457e090600090a35050565b60606007805461040a906110d1565b6000828152600260205260408120546001600160a01b0390811690831615610b4057610b40818486610c0c565b6001600160a01b03811615610b7e57610b5d600085600080610c70565b6001600160a01b038116600090815260036020526040902080546000190190555b6001600160a01b03851615610bad576001600160a01b0385166000908152600360205260409020805460010190555b60008481526002602052604080822080546001600160a01b0319166001600160a01b0389811691821790925591518793918516917fddf252ad1be2c89b69c2b068fc378daa952ba7f163c4a11628f55a4df523b3ef91a4949350505050565b610c17838383610d76565b610573576001600160a01b038316610c4557604051637e27328960e01b81526004810182905260240161050c565b60405163177e802f60e01b81526001600160a01b03831660048201526024810182905260440161050c565b8080610c8457506001600160a01b03821615155b15610d46576000610c94846109e7565b90506001600160a01b03831615801590610cc05750826001600160a01b0316816001600160a01b031614155b8015610cd35750610cd1818461097b565b155b15610cfc5760405163a9fbf51f60e01b81526001600160a01b038416600482015260240161050c565b8115610d445783856001600160a01b0316826001600160a01b03167f8c5be1e5ebec7d5bd14f71427d1e84f3dd0314c0f7b2291e5b200ac8c7c3b92560405160405180910390a45b505b5050600090815260046020526040902080546001600160a01b0319166001600160a01b0392909216919091179055565b60006001600160a01b03831615801590610dd45750826001600160a01b0316846001600160a01b03161480610db05750610db0848461097b565b80610dd457506000828152600460205260409020546001600160a01b038481169116145b949350505050565b600060208284031215610dee57600080fd5b81356001600160e01b031981168114610e0657600080fd5b9392505050565b600060208083528351808285015260005b81811015610e3a57858101830151858201604001528201610e1e565b506000604082860101526040601f19601f8301168501019250505092915050565b600060208284031215610e6d57600080fd5b5035919050565b80356001600160a01b0381168114610e8b57600080fd5b919050565b60008060408385031215610ea357600080fd5b610eac83610e74565b946020939093013593505050565b600080600060608486031215610ecf57600080fd5b610ed884610e74565b9250610ee660208501610e74565b9150604084013590509250925092565b600060208284031215610f0857600080fd5b610e0682610e74565b634e487b7160e01b600052604160045260246000fd5b600067ffffffffffffffff80841115610f4257610f42610f11565b604051601f8501601f19908116603f01168101908282118183101715610f6a57610f6a610f11565b81604052809350858152868686011115610f8357600080fd5b858560208301376000602087830101525050509392505050565b600060208284031215610faf57600080fd5b813567ffffffffffffffff811115610fc657600080fd5b8201601f81018413610fd757600080fd5b610dd484823560208401610f27565b60008060408385031215610ff957600080fd5b61100283610e74565b91506020830135801515811461101757600080fd5b809150509250929050565b6000806000806080858703121561103857600080fd5b61104185610e74565b935061104f60208601610e74565b925060408501359150606085013567ffffffffffffffff81111561107257600080fd5b8501601f8101871361108357600080fd5b61109287823560208401610f27565b91505092959194509250565b600080604083850312156110b157600080fd5b6110ba83610e74565b91506110c860208401610e74565b90509250929050565b600181811c908216806110e557607f821691505b60208210810361110557634e487b7160e01b600052602260045260246000fd5b50919050565b634e487b7160e01b600052601160045260246000fd5b6000600182016111335761113361110b565b5060010190565b80820281158282048414176103f5576103f561110b565b60008261116e57634e487b7160e01b600052601260045260246000fd5b500490565b818103818111156103f5576103f561110b565b601f82111561057357600081815260208120601f850160051c810160208610156111ad5750805b601f850160051c820191505b818110156111cc578281556001016111b9565b505050505050565b815167ffffffffffffffff8111156111ee576111ee610f11565b611202816111fc84546110d1565b84611186565b602080601f831160018114611237576000841561121f5750858301515b600019600386901b1c1916600185901b1785556111cc565b600085815260208120601f198616915b8281101561126657888601518255948401946001909101908401611247565b50858210156112845787850151600019600388901b60f8161c191681555b5050505050600190811b0190555056fea26469706673582212202e974d747e813e9d20507003a4bd7de17e6717808a9d98c339af54cda263668d64736f6c63430008140033",
    "linkReferences": {},
    "deployedLinkReferences": {}
}